:020000040800F2
:10000000000002200518000805170008071700085F
:10001000091700080B1700080D1700080000000062
:100020000000000000000000000000000F170008A2
:10003000111700080000000013170008151700082A
:1000400055180008551800085518000855180008DC
:1000500055180008551800081D1700085518000805
:1000600055180008551800085518000855180008BC
:1000700055180008551800085518000855180008AC
:1000800055180008551800082917000855180008C9
:10009000551800085518000855180008551800088C
:1000A000551800085518000855180008551800087C
:1000B00055180008AD11000855180008551800081B
:1000C000551800085518000855180008551800085C
:1000D000551800085518000855180008551800084C
:1000E000551800085518000855180008551800083C
:1000F000551800085518000855180008551800082C
:10010000551800085518000855180008551800081B
:10011000551800085518000855180008551800080B
:1001200055180008551800085518000855180008FB
:1001300055180008551800085518000855180008EB
:1001400055180008551800085518000855180008DB
:1001500055180008551800085518000855180008CB
:1001600055180008551800085518000855180008BB
:100170005518000855180008551800080000000020
:0801800055180008551800088D
:1001C00053B94AB9002908BF00281CBF4FF0FF31BE
:1001D0004FF0FF3000F00CB8ADF1080C6DE904CE23
:1001E00003F0B1F9DDF804E0DDE9022304B0704763
:1001F000704700BF00000000000000000000000089
:1002000090F800F06DE9024520F007016FF0000C56
:1002100010F0070491F820F040F049804FF00004FE
:100220006FF00700D1E9002391F840F000F10800D9
:1002300082FA4CF2A4FA8CF283FA4CF3A2FA8CF311
:100240004BBBD1E9022382FA4CF200F10800A4FA78
:100250008CF283FA4CF3A2FA8CF3E3B9D1E90423CC
:1002600082FA4CF200F10800A4FA8CF283FA4CF303
:10027000A2FA8CF37BB9D1E9062301F1200182FABD
:100280004CF200F10800A4FA8CF283FA4CF3A2FAC3
:100290008CF3002BC6D0002A04BF04301A4612BAD1
:1002A000B2FA82F2FDE8024500EBD2007047D1E9D4
:1002B000002304F00305C4F100004FEAC50514F063
:1002C000040F91F840F00CFA05F562EA05021CBF34
:1002D00063EA050362464FF00004A9E7000000004E
:1002E00001F0FF01102A2BDB10F0070F08D010F8E7
:1002F000013B013A8B422DD010F0070F42B3F6D1EB
:10030000F0B441EA012141EA014122F007047FF003
:1003100000070023F0E80256083C85EA010586EA5A
:10032000010685FA47F5A3FA87F586FA47F6A5FA96
:1003300087F68EB9EED1F0BC01F0FF0102F00702A2
:1003400032B110F8013B013A83EA010313B1F8D14D
:100350000020704701387047002D06BF354603382E
:10036000073815F0010F07D1013015F4807F02BF67
:10037000013015F4C03F0130F0BC0138704700BFB8
:10038000844641EA000313F003036DD1403A41D3A0
:1003900051F8043B40F8043B51F8043B40F8043B5F
:1003A00051F8043B40F8043B51F8043B40F8043B4F
:1003B00051F8043B40F8043B51F8043B40F8043B3F
:1003C00051F8043B40F8043B51F8043B40F8043B2F
:1003D00051F8043B40F8043B51F8043B40F8043B1F
:1003E00051F8043B40F8043B51F8043B40F8043B0F
:1003F00051F8043B40F8043B51F8043B40F8043BFF
:1004000051F8043B40F8043B51F8043B40F8043BEE
:10041000403ABDD2303211D351F8043B40F8043B8E
:1004200051F8043B40F8043B51F8043B40F8043BCE
:1004300051F8043B40F8043B103AEDD20C3205D39E
:1004400051F8043B40F8043B043AF9D2043208D096
:10045000D2071CBF11F8013B00F8013B01D30B8808
:1004600003806046704700BF082A13D38B078DD0E6
:1004700010F003038AD0C3F10403D21ADB071CBFB8
:1004800011F8013B00F8013B80D331F8023B20F822
:10049000023B7BE7043AD9D3013A11F8013B00F85B
:1004A000013BF9D20B7803704B7843708B788370E3
:1004B0006046704781F0004102E000BF83F00043D6
:1004C00030B54FEA41044FEA430594EA050F08BFEF
:1004D00090EA020F1FBF54EA000C55EA020C7FEAB3
:1004E000645C7FEA655C00F0E2804FEA5454D4EB30
:1004F0005555B8BF6D420CDD2C4480EA020281EAFA
:10050000030382EA000083EA010180EA020281EA31
:100510000303362D88BF30BD11F0004F4FEA013183
:100520004FF4801C4CEA113102D0404261EB410192
:1005300013F0004F4FEA03334CEA133302D0524218
:1005400063EB430394EA050F00F0A780A4F10104D4
:10055000D5F1200E0DDB02FA0EFC22FA05F280180E
:1005600041F1000103FA0EF2801843FA05F35941F4
:100570000EE0A5F120050EF1200E012A03FA0EFC73
:1005800028BF4CF0020C43FA05F3C01851EBE3719D
:1005900001F0004507D54FF0000EDCF1000C7EEBBA
:1005A00000006EEB0101B1F5801F1BD3B1F5001FF8
:1005B0000CD349085FEA30004FEA3C0C04F1010417
:1005C0004FEA445212F5800F80F09A80BCF1004F40
:1005D00008BF5FEA500C50F1000041EB045141EAC2
:1005E000050130BD5FEA4C0C404141EB0101013C8B
:1005F00028BFB1F5801FE9D291F0000F04BF01467A
:100600000020B1FA81F308BF2033A3F10B03B3F14B
:1006100020020CDA0C3208DD02F1140CC2F10C02DB
:1006200001FA0CF021FA02F10CE002F11402D8BF39
:10063000C2F1200C01FA02F120FA0CFCDCBF41EA05
:100640000C019040E41AA2BF01EB0451294330BDD4
:100650006FEA04041F3C1CDA0C340EDC04F11404B1
:10066000C4F1200220FA04F001FA02F340EA030088
:1006700021FA04F345EA030130BDC4F10C04C4F1CE
:10068000200220FA02F001FA04F340EA03002946AE
:1006900030BD21FA04F0294630BD94F0000F83F4F8
:1006A000801306BF81F480110134013D4EE77FEADB
:1006B000645C18BF7FEA655C29D094EA050F08BF27
:1006C00090EA020F05D054EA000C04BF1946104608
:1006D00030BD91EA030F1EBF0021002030BD5FEA4C
:1006E000545C05D14000494128BF41F0004130BD74
:1006F00014F580043CBF01F5801130BD01F00045C8
:1007000045F0FE4141F470014FF0000030BD7FEA3A
:10071000645C1ABF194610467FEA655C1CBF0B4635
:10072000024650EA013406BF52EA033591EA030F4C
:1007300041F4002130BD00BF90F0000F04BF002144
:10074000704730B54FF4806404F132044FF0000577
:100750004FF0000150E700BF90F0000F04BF0021F0
:10076000704730B54FF4806404F1320410F0004556
:1007700048BF40424FF000013EE700BF42004FEA51
:10078000E2014FEA31014FEA02701FBF12F07F43CE
:1007900093F07F4F81F06051704732F07F4208BF85
:1007A000704793F07F4F04BF41F40021704730B58C
:1007B0004FF4607401F0004521F000411CE700BFD8
:1007C00050EA010208BF704730B54FF000050AE05B
:1007D00050EA010208BF704730B511F0004502D55C
:1007E000404261EB41014FF4806404F132045FEA5E
:1007F000915C3FF4D8AE4FF003025FEADC0C18BF07
:1008000003325FEADC0C18BF033202EBDC02C2F1F8
:10081000200300FA03FC20FA02F001FA03FE40EA8A
:100820000E0021FA02F11444BDE600BF70B54FF08E
:10083000FF0C4CF4E06C1CEA11541DBF1CEA13556C
:1008400094EA0C0F95EA0C0F00F0DEF82C4481EAD4
:10085000030621EA4C5123EA4C5350EA013518BFF4
:1008600052EA033541F4801143F4801338D0A0FBE1
:1008700002CE4FF00005E1FB02E506F00042E0FB8E
:1008800003E54FF00006E1FB03569CF0000F18BF94
:100890004EF0010EA4F1FF04B6F5007F64F540743C
:1008A00004D25FEA4E0E6D4146EB060642EAC621CF
:1008B00041EA55514FEAC52040EA5E504FEACE2E3C
:1008C000B4F1FD0C88BFBCF5E06F1ED8BEF1004F3F
:1008D00008BF5FEA500E50F1000041EB045170BDBB
:1008E00006F0004646EA010140EA020081EA0301FF
:1008F000B4EB5C04C2BFD4EB0C0541EA045170BDFB
:1009000041F480114FF0000E013C00F3AB8014F174
:10091000360FDEBF002001F0004170BDC4F10004BD
:10092000203C35DA0C341BDC04F11404C4F120053E
:1009300000FA05F320FA04F001FA05F240EA020099
:1009400001F0004221F0004110EBD37021FA04F6CF
:1009500042EB06015EEA430E08BF20EAD37070BD89
:10096000C4F10C04C4F1200500FA04F320FA05F0E8
:1009700001FA04F240EA020001F0004110EBD370EA
:1009800041F100015EEA430E08BF20EAD37070BD5A
:10099000C4F1200500FA05F24EEA020E20FA04F333
:1009A00001FA05F243EA020321FA04F001F00041E2
:1009B00021FA04F220EA020000EBD3705EEA430E53
:1009C00008BF20EAD37070BD94F0000F0FD101F082
:1009D0000046400041EB010111F4801F08BF013CBB
:1009E000F7D041EA060195F0000F18BF704703F0F9
:1009F0000046520043EB030313F4801F08BF013D80
:100A0000F7D043EA0603704794EA0C0F0CEA13553B
:100A100018BF95EA0C0F0CD050EA410618BF52EAF5
:100A20004306D1D181EA030101F000414FF00000FB
:100A300070BD50EA410606BF1046194652EA430609
:100A400019D094EA0C0F02D150EA013613D195EA7D
:100A50000C0F05D152EA03361CBF104619460AD1C5
:100A600081EA030101F0004141F0FE4141F47001CF
:100A70004FF0000070BD41F0FE4141F4780170BDBF
:100A800070B54FF0FF0C4CF4E06C1CEA11541DBF24
:100A90001CEA135594EA0C0F95EA0C0F00F0A7F826
:100AA000A4EB050481EA030E52EA03354FEA013153
:100AB00000F088804FEA03334FF0805545EA131366
:100AC00043EA12634FEA022245EA111545EA10652E
:100AD0004FEA00260EF000419D4208BF964244F1C5
:100AE000FD0404F5407402D25B084FEA3202B61AE4
:100AF00065EB03055B084FEA32024FF480104FF4B8
:100B0000002CB6EB020E75EB030E22BFB61A75462B
:100B100040EA0C005B084FEA3202B6EB020E75EBBE
:100B2000030E22BFB61A754640EA5C005B084FEA26
:100B30003202B6EB020E75EB030E22BFB61A7546F3
:100B400040EA9C005B084FEA3202B6EB020E75EBFE
:100B5000030E22BFB61A754640EADC0055EA060EBF
:100B600018D04FEA051545EA16754FEA06164FEA02
:100B7000C30343EA52734FEAC2025FEA1C1CC0D1AE
:100B800011F4801F0BD141EA00014FF000004FF03B
:100B9000004CB6E711F4801F04BF01430020B4F1FC
:100BA000FD0C88BFBCF5E06F3FF6AFAEB5EB030CB4
:100BB00004BFB6EB020C5FEA500C50F1000041EBB1
:100BC000045170BD0EF0004E4EEA113114EB5C047E
:100BD000C2BFD4EB0C0541EA045170BD41F4801151
:100BE0004FF0000E013C90E645EA060E8DE60CEA59
:100BF000135594EA0C0F08BF95EA0C0F3FF43BAF76
:100C000094EA0C0F0AD150EA01347FF434AF95EA2C
:100C10000C0F7FF425AF104619462CE795EA0C0F10
:100C200006D152EA03353FF4FDAE1046194622E7DD
:100C300050EA410618BF52EA43067FF4C5AE50EAB7
:100C400041047FF40DAF52EA43057FF4EBAE12E7A7
:100C50004FF0FF3C06E000BF4FF0010C02E000BF88
:100C60004FF0010C4DF804CD4FEA410C7FEA6C5C6B
:100C70004FEA430C18BF7FEA6C5C1BD001B050EA0E
:100C8000410C0CBF52EA430C91EA030F02BF90EAF9
:100C9000020F0020704710F1000F91EA030F58BFB8
:100CA000994208BF90422CBFD8176FEAE37040F01A
:100CB000010070474FEA410C7FEA6C5C02D150EAB8
:100CC000013C07D14FEA430C7FEA6C5CD6D152EA73
:100CD000033CD3D05DF8040B704700BF8446104638
:100CE00062468C461946634600E000BF01B5FFF737
:100CF000B7FF002848BF10F1000F01BD4DF808ED07
:100D0000FFF7F4FF0CBF012000205DF808FB00BFD7
:100D10004DF808EDFFF7EAFF34BF012000205DF831
:100D200008FB00BF4DF808EDFFF7E0FF94BF01207E
:100D300000205DF808FB00BF4DF808EDFFF7CEFF7F
:100D400094BF012000205DF808FB00BF4DF808EDBE
:100D5000FFF7C4FF34BF012000205DF808FB00BF8F
:100D60004FEA410C7FEA6C5C02D150EA013C0AD1A7
:100D70004FEA430C7FEA6C5C02D152EA033C02D199
:100D80004FF0000070474FF0010070474FEA4102FA
:100D900012F5001215D211D56FF47873B3EB6252CD
:100DA00012D94FEAC12343F0004343EA505311F0F4
:100DB000004F23FA02F018BF404270474FF0000086
:100DC000704750EA013005D111F0004008BF6FF0C4
:100DD000004070474FF00000704700BF10B5054C51
:100DE000237833B9044B13B10448AFF300800123D7
:100DF000237010BD080A002000000000F0950008D4
:100E000008B5034B1BB103490348AFF3008008BD8D
:100E1000000000000C0A0020F095000830B599B0E1
:100E2000302200210DEB020002F026FD0024079481
:100E3000089409940A940B940394049405940694DA
:100E40000194204B1A6C42F080521A641B6C03F020
:100E500080530193019B02941B4B1A6842F4804219
:100E60001A601B6803F480430293029B0A230C93CD
:100E700001230F93102210921193022512951394BF
:100E800008231493322315930423169307231793EF
:100E90000CA801F0A7FC0F230793089509944FF4C1
:100EA000A0530A934FF480530B93214607A801F0F7
:100EB000F9FE03954FF40073069303A801F0C8FFF1
:100EC00019B030BD003802400070004030B583B02A
:100ED00000250195114B1A6C42F002021A641B6C3A
:100EE00003F002030193019B0D4C43F2D4036360B2
:100EF000A560FA23E3600B4B2360204602F0F0F973
:100F0000204602F078F9012229461D2000F05CFFFE
:100F10001D2000F091FF03B030BD00BF003802403B
:100F2000900B00200004004010B586B0002400940F
:100F3000114B1A6B42F001021A631B6B03F00103A1
:100F40000093009B019402940394049405940B4B2A
:100F50001A8801920A4A02920222039201A9586851
:100F600000F08CFF22462146062000F02DFF0620CF
:100F700000F062FF06B010BD003802400000002003
:100F80000000211008B50948094B0360094B436074
:100F900000238360C3604FF4804202614361836138
:100FA000C361036201F0BAF908BD00BF840A0020E2
:100FB00000540040A086010030B585B000230093A6
:100FC000019302930393104C104A22604FF4403275
:100FD0006260A36023610125257684F82030E362F6
:100FE0000B4AA262E360E56184F830306561204617
:100FF00000F032FD009501950723029369462046D3
:1010000000F002FE05B030BD3C0A00200020014087
:101010000100000F08B50748074B03600023436039
:101020007F228260FF22C26003614361836101F01D
:10103000F0FF08BDD80A00200028004008B50B4882
:101040000B4B03604FF48273436000238360C360E3
:10105000036143614FF400728261C36103624362C2
:1010600083620A23C36202F085F808BDF80A0020F3
:101070000030014008B50848084B03604FF4E133E5
:10108000436000238360C36003610C22426183617B
:10109000C36102F029FA08BD500B00200044004053
:1010A00010B5044600F090F9204600F099F910BD03
:1010B00010B5044600F08EF9204600F091F910BDFD
:1010C00008B500F0EFFBFFF7A9FEFFF7FFFEFFF703
:1010D0002BFFFFF757FFFFF76FFFFFF79BFFFFF7B0
:1010E000ADFFFFF7C7FF024800F000F908BD00BFE1
:1010F000840A0020014B9863704700BF0000002065
:10110000014B1864704700BF00000020014BD863FA
:10111000704700BF00000020F8B504460E4E0F4F88
:1011200000223146384601F0DFFF0D4D00222946EE
:10113000384602F001F8B37823607378636033783F
:10114000A360AB78E3606B782361EB7803F5FA6317
:1011500063612046F8BD00BF280A0020D80A00209D
:10116000240A002038B50546002400E00134022C92
:101170000BDC064B1B88AB42F8D1044B9B6B002B5E
:10118000F4D00021E0B29847F0E738BD000000201D
:1011900008B5054BDB6B2BB100F089FC024BDB6B18
:1011A00080B2984708BD00BF0000002008B5094B79
:1011B0001B681A6912F0010F0AD0DA6812F0010FE9
:1011C00006D06FF001021A61034B1B6C03B1984704
:1011D00008BD00BF900B00200000002008B50346AA
:1011E000044843718168027902EB830351F823308C
:1011F000984708BD4400002008B5FFF759FF08BD17
:1012000010B504460248FFF7F7FF0023237110BD15
:101210000896000810B504460248FFF7EDFF0023CA
:10122000237110BD0896000808B50248FFF7E4FFD7
:1012300008BD00BF1096000810B504460248FFF72D
:10124000DBFF0123237110BD2496000800B585B093
:101250000301DBB200F0F00040F00C028DF80C202E
:1012600040F008008DF80D0043F00C028DF80E20C0
:1012700043F008038DF80F30C8230093042303AA1A
:10128000044909780448006801F026F905B05DF8C2
:1012900004FB00BFD40B0020D00B002000B585B0AC
:1012A0000301DBB200F0F00040F00D028DF80C20DD
:1012B00040F009008DF80D0043F00D028DF80E206E
:1012C00043F009038DF80F30C8230093042303AAC9
:1012D000044909780448006801F0FEF805B05DF89B
:1012E00004FB00BFD40B0020D00B002010B5044637
:1012F000322000F003FB2B4B1C604FF4FA730522E5
:101300004E21204601F0A4F9E8BB274B4E221A706B
:101310002D2000F0F3FA3020FFF798FF052000F0B1
:10132000EDFA3020FFF792FF012000F0E7FA3020BD
:10133000FFF78CFF082000F0E1FA2020FFF786FF7E
:10134000082000F0DBFA2820FFF780FF012000F0E2
:10135000D5FA0820FFF77AFF012000F0CFFA01202C
:10136000FFF774FF032000F0C9FA0620FFF76EFFB5
:10137000012000F0C3FA0C20FFF768FF032000F003
:10138000BDFA012010BD4FF4FA7305227E210548F5
:10139000006801F05DF90028F3D1034B7E221A703A
:1013A000B6E700BFD00B0020D40B002008B501F039
:1013B0000F0120B941F08000FFF748FF08BD41F060
:1013C000C000FFF743FFF9E708B500210846FFF723
:1013D000EDFF08BD08B500210120FFF7E7FF08BDBC
:1013E0000FB410B586B008AA52F8041B009201A8E9
:1013F00003F0F2FF002401A8FEF702FF84420AD2A4
:101400000F2C08D806AB234413F8140CFFF746FF43
:101410000134E4B2EFE706B0BDE8104004B0704715
:101420007047000000B585B00246054901A802F0EA
:1014300073FA01A8FFF734FE05B05DF804FB00BFA6
:101440009C96000800B58FB005A8FFF765FE059BC8
:101450000093069B079A0A4902A802F05DFA02A8C7
:10146000FFF71EFE0A9B0093099B089A054902A8F4
:1014700002F052FA02A8FFF71BFE0FB05DF804FB62
:10148000B0960008C096000808B5FFF719FE084896
:10149000FFF730FE0748FFF733FE0748FFF736FE39
:1014A0000020FFF79BFE01F0ADFCFFF7F9FDFEE722
:1014B00025140008451400082114000800B583B065
:1014C000002100910C4B5A6C42F480425A645A6CD1
:1014D00002F480420092009A01911A6C42F080520C
:1014E0001A641B6C03F080530193019B072000F0EA
:1014F00059FC03B05DF804FB0038024010B588B019
:10150000002303930493059306930793026803F162
:10151000804303F590339A4201D008B010BD0024F7
:10152000019403F58C335A6C42F480725A645A6CFD
:1015300002F480720192019A02941A6B42F0010245
:101540001A631B6B03F001030293029B02230393B4
:101550000323049303A9064800F090FC2246214689
:10156000122000F031FC122000F066FCD5E700BF2D
:101570000000024030B589B0002303930493059323
:10158000069307930268144B9A4201D009B030BD0C
:1015900000250195114C236B43F002032363236B59
:1015A00003F002030193019B4FF410730393122382
:1015B0000493012305930423079303A9084800F02B
:1015C0005DFC0295236C43F400132364236C03F445
:1015D00000130293029BD9E70054004000380240F8
:1015E000000402400268044B9A4200D07047034B4B
:1015F0000122C3F83C2EF9E70028004000004742D2
:1016000000B589B0002303930493059306930793D1
:101610000268144B9A4202D009B05DF804FB002125
:10162000019103F584335A6C42F480525A645A6C27
:1016300002F480520192019A02911A6B42F0010267
:101640001A631B6B03F001030293029BE0230393D5
:10165000022304930523079303A9034800F00EFC1B
:10166000DAE700BF0030014000000240F0B589B069
:1016700000230393049305930693079302681E4B7C
:101680009A4201D009B0F0BD0024009403F5FA336A
:101690001A6C42F400321A641A6C02F4003200929E
:1016A000009A01941A6B42F001021A631A6B02F05D
:1016B00001020192019A02941A6B42F008021A6325
:1016C0001B6B03F008030293029B0423039302277E
:1016D0000497032606960725079503A9074800F0F7
:1016E000CDFB40230393049705940696079503A921
:1016F000034800F0C3FBC5E700440040000002407F
:10170000000C02407047FEE7FEE7FEE7FEE7704789
:101710007047704708B500F0DFF808BD08B5012034
:1017200000F094FC08BD000008B5024800F0C4F9C0
:1017300008BD00BF3C0A00200120704708B502F038
:101740005BF8162303604FF0FF3008BD08B54FF07B
:10175000FF31FFF7F3FFFEE770B50C461646002594
:1017600006E0AFF30080214601F8010B01350C467D
:10177000B542F6DB304670BD70B50C461646002506
:1017800004E014F8010BAFF300800135B542F8DB3B
:10179000304670BD4FF0FF3070474FF400534B6040
:1017A00000207047012070470020704710B50346A5
:1017B0000C4A0D490D48006840B10C4800680344CC
:1017C000521A934206D8094A136010BD0748084CC4
:1017D0000460F2E702F010F80C2303604FF0FF30D2
:1017E000F3E700BF0000022000040000D80B002037
:1017F000400C0020024B4FF000629A60704700BF1F
:1018000000ED00E0DFF834D0002103E00C4B5B5822
:10181000435004310B480C4B42189A42F6D30B4A02
:1018200002E0002342F8043B094B9A42F9D3FFF748
:10183000E1FF01F0FDFFFFF727FE704700000220E7
:101840007C9A000800000020080A0020080A0020F6
:101850003C0C0020FEE7000010B504460E4B187843
:101860004FF47A73B3FBF0F30C4A1068B0FBF3F05B
:1018700000F0F0FA68B90F2C01D901200AE000222B
:1018800021464FF0FF3000F09FFA054B1C6000200E
:1018900000E0012010BD00BF5400002050000020D7
:1018A0005800002008B50B4B1A6842F400721A6009
:1018B0001A6842F480621A601A6842F480721A60F0
:1018C000032000F06FFA0020FFF7C6FFFFF7F6FDD8
:1018D000002008BD003C0240034A1168034B1B78FE
:1018E0000B441360704700BFDC0B00205400002045
:1018F000014B1868704700BFDC0B002038B5044668
:10190000FFF7F6FF0546B4F1FF3F02D0044B1B780A
:101910001C44FFF7EDFF401BA042FAD338BD00BFC7
:10192000540000204A4B5A6822F440325A605A68E8
:1019300041680A435A600268536823F48073536015
:1019400002685368016943EA0123536002685368DF
:1019500023F0407353600268536881680B435360FF
:101960000268936823F40063936002689368C16817
:101970000B439360826A374B9A4257D00268936850
:1019800023F07063936002689368816A0B439360ED
:101990000268936823F04053936002689368C16AB9
:1019A0000B4393600268936823F00203936002681C
:1019B0009368017E43EA4103936090F82030002B46
:1019C0003FD00268536843F4006353600268536871
:1019D00023F46043536001684B68426A013A43EA6A
:1019E00042334B600268D36A23F47003D362016808
:1019F000CB6AC269013A43EA0253CB620268936838
:101A000023F4007393600268936890F8301043EAFF
:101A1000412393600268936823F4806393600268B3
:101A20009368416943EA8123936070470268936831
:101A300023F0706393600268936823F040539360CF
:101A4000B0E70268536823F400635360CAE700BF3D
:101A5000002301400100000F38B310B50446036CA9
:101A600043B1236C13F0100F0BD00120002384F836
:101A70003C3010BDFFF742FD0023636484F83C3026
:101A8000EFE7236C23F4885323F0020343F00203AF
:101A900023642046FFF746FF00206064236C23F098
:101AA000030343F001032364E0E701207047036868
:101AB000D86C70477047704738B5044602681168A3
:101AC000536811F0020F2FD003F0200363B3036CAF
:101AD00013F0100F03D1036C43F400730364936895
:101AE00013F0405F19D1237EBBB9D36A13F4700F92
:101AF00003D0936813F4806F0FD1536823F0200351
:101B00005360236C23F480732364236C13F4805F8D
:101B100003D1236C43F0010323642046FFF738FB15
:101B200023686FF012021A60236819685A6802F07D
:101B3000800211F0040F36D0002A34D0226C12F04B
:101B4000100F03D1226C42F4005222649A6812F4FE
:101B5000401F21D19A6B12F4401F03D09A6812F4EF
:101B6000806F19D15A6812F4806F15D19A6812F0FB
:101B7000405F11D1227E7AB95A6822F080025A6001
:101B8000236C23F480532364236C13F4807F03D1EC
:101B9000236C43F001032364204600F001F923681D
:101BA0006FF00C021A6022681168536803F040035A
:101BB00011F0010F04D01BB1136813F0010F09D10C
:101BC00022681168536803F0806311F0200F00D081
:101BD00063B938BD236C43F4803323642046FFF798
:101BE00069FF23686FF001021A60E9E7636C43F054
:101BF000020363646FF0200515602046FFF75BFF6A
:101C000023681D60E5E7000030B482B00023019333
:101C100090F83C30012B00F0BB80012380F83C3071
:101C20000B68092B41D90468E2689BB203EB4303BC
:101C30001E3B4FF0070C0CFA03F322EA0303E360A8
:101C40000468E2680B8803EB43031E3B8D6805FACA
:101C500003F31343E3604B68062B3DD80468626BC3
:101C600003EB8303053B4FF01F0C0CFA03F322EA4E
:101C7000030363630468626B4B6803EB8303053BF8
:101C8000B1F800C00CFA03F3134363630268414BDD
:101C90009A4251D002683F4B9A4256D0002380F8B6
:101CA0003C30184602B030BC7047046822699BB2D1
:101CB00003EB43034FF0070C0CFA03F322EA030390
:101CC0002361046822690B8803EB43038D6805FADE
:101CD00003F313432361BEE70C2B16D805682A6B68
:101CE00003EB8303233B1F2404FA03F322EA0303D9
:101CF0002B6305682A6B4B6803EB8303233B0C883B
:101D000004FA03F313432B63C0E70568EA6A03EBA5
:101D10008303413B1F2404FA03F322EA0303EB622B
:101D20000568EA6A4B6803EB8303413B0C8804FABD
:101D300003F31343EB62A9E70B68122BAAD1164AEF
:101D4000536843F480035360A4E70B68103B012BF6
:101D5000A4D8114A536843F4000353600B68102B56
:101D60009CD10E4B1B6802F1467202F52E3202F234
:101D70008332A2FB03239B0C03EB83035B000193E1
:101D800002E0019B013B0193019B002BF9D185E708
:101D9000022087E70020014000230140500000207E
:101DA00070470000074AD36823F4E0631B041B0C50
:101DB000000200F4E060034343F0BF6343F40033E8
:101DC000D360704700ED00E000B5194BDB68C3F34A
:101DD0000223C3F1070CBCF1040F28BF4FF0040C21
:101DE00003F1040EBEF1060F18D9033B4FF0FF3E7E
:101DF0000EFA0CFC21EA0C0199400EFA03F322EAD8
:101E00000303194300280BDB0901C9B200F160404C
:101E100000F5614080F800135DF804FB0023E5E75E
:101E200000F00F000901C9B2024B1954F4E700BFDA
:101E300000ED00E014ED00E0002807DB00F01F02D9
:101E4000400901239340024A42F82030704700BF06
:101E500000E100E00138B0F1807F0BD24FF0E023C9
:101E60005861054AF02182F823100020986107226A
:101E70001A6170470120704700ED00E000230F2B2E
:101E800000F2DA80F0B583B03AE0072200E00022E9
:101E9000AA4032430234694D45F82420684A146848
:101EA0006FEA0C0224EA0C054E6816F4803F01D05C
:101EB0004CEA0405624C2560646802EA04054E6839
:101EC00016F4003F01D04CEA04055D4C6560A4683F
:101ED00002EA04054E6816F4801F01D04CEA04059E
:101EE000574CA560E46822404D6815F4001F01D0EE
:101EF0004CEA0402524CE26001330F2B00F29A804C
:101F000001229A400C6804EA020C32EA0404F3D17C
:101F10004C68651E012D03D9112C01D0122C12D151
:101F200085685E000324B44025EA0405CC68B4400B
:101F30002C438460456825EA02054C68C4F300120E
:101F40009A402A434260C5684FEA430E032404FACC
:101F50000EF4E24325EA04058C6804FA0EF42C43DF
:101F6000C4604C68022C01D0122C0FD1DD0808355A
:101F700050F8257003F00704A6000F24B44027EAA8
:101F800004070C69B4403C4340F825400468144001
:101F90004A6802F0030202FA0EF2224302604A6823
:101FA00012F0805FA8D000220192264A546C44F4BB
:101FB00080445464526C02F480420192019A9C085D
:101FC000A51C1E4A52F8256003F0030295000F225B
:101FD000AA4026EA02061C4A90423FF458AF02F596
:101FE000806290421AD002F58062904218D002F5C9
:101FF0008062904216D002F58062904214D002F5C1
:102000008062904212D002F58062904210D002F5B8
:10201000806290423FF439AF082239E7012237E766
:10202000022235E7032233E7042231E705222FE7B6
:1020300006222DE703B0F0BD704700BF0038014015
:10204000003C0140003802400000024008B5054B4A
:102050005B69034200D108BD024B5861FFF782F86B
:10206000F9E700BF003C014003685A6912F4806F31
:1020700001D1002070476FF480625A61002303632E
:10208000202280F83D2080F83E30026C42F00402AD
:10209000026480F83C30012070472DE9F04107468A
:1020A0000D4690461E4624E0FFF722FC069BC01A10
:1020B000B04200D8EEB900233B63202287F83D20D0
:1020C00087F83E303A6C42F020023A6487F83C30A0
:1020D00001201EE03B689C6925EA040C1FFA8CFC79
:1020E000BCFA8CFC4FEA5C1CE04511D1B6F1FF3F15
:1020F000DAD1C5F30743012BECD13B685B6925EAD4
:10210000030C1FFA8CFCBCFA8CFC4FEA5C1CEBE75E
:102110000020BDE8F0812DE9F04105460E46174646
:1021200098463DE01A6842F400721A602B686FF41A
:1021300080625A6100232B63202285F83D2085F8B8
:102140003E302A6C42F004022A6485F83C300120BB
:1021500034E0FFF7CDFBA0EB0800B84200D8FFB990
:1021600000232B63202285F83D2085F83E302A6C21
:1021700042F020022A6485F83C3001201EE02B68E2
:102180009C6926EA0404A4B2003C18BF0124A4B14F
:102190002B685A6912F4806FC4D1B7F1FF3FD8D1D0
:1021A000C6F30743012BEAD12B685C6926EA0404D5
:1021B000A4B2003C18BF0124E9E70020BDE8F0818B
:1021C000F0B583B004460D4616461F46C36A082B79
:1021D0000DD0012B0BD013F5803F08D0036B122BD1
:1021E0000AD10268136843F48073136004E0226824
:1021F000136843F4807313600097334600224FF056
:1022000001112046FFF749FF80B92369B3F5804FDC
:1022100016D1236805F0FE051D613B463246134981
:102220002046FFF778FFF8B903B0F0BD23681B68BC
:1022300013F4807F02D04FF4007323640320F3E78C
:10224000EB11226803F0060343F0F00313613B46F1
:10225000324607492046FFF75EFF18B92368EDB202
:102260001D61DAE70120DFE70120DDE70200010060
:102270000800010070B504460D46164623685B69E8
:1022800013F0800F1CD12046FFF7EEFED0B9B5F158
:10229000FF3FF3D0FFF72CFB801BA84201D8002D95
:1022A000ECD100232363202284F83D2084F83E30C3
:1022B000226C42F02002226484F83C30012000E0CD
:1022C000002070BD0120FCE770B504460D4616469F
:1022D00023685B6913F0040F1CD12046FFF7C4FE8E
:1022E000D0B9B5F1FF3FF3D0FFF702FB801BA84246
:1022F00001D8002DECD100232363202284F83D2057
:1023000084F83E30226C42F02002226484F83C3093
:10231000012000E0002070BD0120FCE7002800F053
:10232000CC8070B5044690F83D30002B77D0242344
:1023300084F83D302268136823F00103136022689B
:10234000136843F4004313602268136823F40043C6
:10235000136000F05DFD62685A4B9A4264D85A4B94
:1023600098428CBF00230123002B40F0A8805749DE
:10237000A1FB00318B0C25686A6822F03F0242EA1B
:1023800091426A6021680A6A22F03F0266684D4DF8
:10239000AE424FD8013313430B622168CA6922F45D
:1023A0004F4222F0FF026668464B9E424CD8431EC5
:1023B0007600B3FBF6F3013340F6FC70034278D0AD
:1023C000C3F30B031343CB6121680B6823F0C003F5
:1023D000E269206A024313430B6021688B6823F48F
:1023E000034323F0FF032269E068024313438B6039
:1023F0002168CB6823F0FF036269A069024313439D
:10240000CB602268136843F001031360002020644E
:10241000202384F83D30206384F83E0070BD80F8AE
:102420003C30FFF7A7F882E7294B98428CBF002386
:10243000012399E74FF4967505FB03F3254DA5FBA2
:1024400003539B090133A6E7A368BBB9451E06EBFE
:10245000460CB5FBFCF50135C5F30B05B5FA85F562
:102460006D0945BBC3B9013806EB4603B0FBF3F376
:102470000133C3F30B0343F40043A3E7451E06EB0C
:10248000860C0CEB8C0CB5FBFCF50135C5F30B058C
:10249000B5FA85F56D09E4E7013806EB860303EB31
:1024A0008303B0FBF3F30133C3F30B0343F4404363
:1024B00088E7042386E7012384E701207047012091
:1024C000ACE700BFA08601007F841E0083DE1B43B3
:1024D000FF083D00D34D62102DE9F04385B004465E
:1024E0000F46914698460C9EFFF702FA054694F86F
:1024F0003D00C0B2202804D00227384605B0BDE810
:10250000F0830095192301224F492046FFF7C5FDAE
:10251000002840F0928094F83C30012B00F08F802E
:10252000012384F83C3023681A6812F0010F03D1AC
:102530001A6842F001021A602268136823F40063EB
:102540001360212384F83D30102384F83E300023AB
:102550002364C4F82490A4F82A80638D23853B4B20
:10256000E3622B46324639462046FFF729FE0746EE
:10257000002866D10023039323685A6903929B695C
:102580000393039B11E0236C042B01D00127B4E7D4
:102590002268136843F400731360F7E72A46314654
:1025A0002046FFF791FE00282ED1238D002B36D038
:1025B0002A4631462046FFF75DFE0028E3D1626AD5
:1025C000236812781A61606A431C6362618D89B264
:1025D000013989B26185238D013B9BB22385226835
:1025E000516911F0040FD9D0002BD7D04378136173
:1025F000636A01336362638D9BB2013B9BB2638567
:10260000238D013B2385C9E7236C042B01D00127CF
:1026100073E72268136843F400731360F7E72268D6
:10262000136843F400731360202384F83D300023C3
:1026300084F83E3084F83C305FE702275DE70227EC
:102640005BE7012759E700BF020010000000FFFF11
:102650002DE9F04385B00446884691461D46FFF7B4
:1026600047F994F83D30DBB2202B03D0022005B0AF
:10267000BDE8F08306460090192301225849204600
:10268000FFF70BFD002840F0A28094F83C30012BAE
:1026900000F09F80012384F83C3023681A6812F010
:1026A000010F03D11A6842F001021A602268136810
:1026B00023F400631360242384F83D300023236453
:1026C000A3F58033E362012740E023681B6813F41D
:1026D000807F02D04FF4007323640320C7E7A02358
:1026E00084F83D3022685369C3F340035269C2F352
:1026F000802294F83DC05FFA8CFCBCF1A00F09D099
:1027000043B93AB9FFF7F4F8801BA842E7D8002D87
:10271000E8D1E4E7202384F83D3023685A6912F0B9
:10272000020F31D11A6842F400721A6023686FF404
:1027300080625A6100961923012229492046FFF739
:10274000ACFC002849D101374F4538D222681368C4
:1027500043F48073136000962B4600224FF0011162
:102760002046FFF79AFC0028AFD1236808F0FE024C
:102770001A61FFF7BDF8064622685369C3F34003A8
:102780005269C2F38022B4E71A6842F400721A60F8
:102790000023039323685A6903929B690393039B65
:1027A0000096192301220E492046FFF776FC90B9C6
:1027B000202384F83D30002384F83C3057E7202361
:1027C00084F83D30002384F83C3001204FE702209C
:1027D0004DE702204BE7012049E7012047E700BF12
:1027E00002001000002800F0DA8170B582B00446C3
:1027F000036813F0010F3BD09F4B9B6803F00C0361
:10280000042B2CD09C4B9B6803F00C03082B21D08D
:102810006368B3F5803F4FD0B3F5A02F52D0964BED
:102820001A6822F480321A601A6822F480221A6030
:102830006368002B50D0FFF75BF805468E4B1B6892
:1028400013F4003F14D1FFF753F8401B6428F5D967
:102850000320ABE1884B5B6813F4800FD8D0864B24
:102860001B6813F4003F03D06368002B00F09981CC
:10287000236813F0020F54D07F4B9B6813F00C0FAA
:102880003ED07D4B9B6803F00C03082B33D0E368EC
:10289000002B68D0794B01221A60FFF729F8054612
:1028A000754B1B6813F0020F54D1FFF721F8401B42
:1028B0000228F5D9032079E16F4A136843F4803385
:1028C0001360B5E76C4B1A6842F480221A601A68EC
:1028D00042F480321A60ABE7FFF70AF80546664B10
:1028E0001B6813F4003FC3D0FFF702F8401B6428B5
:1028F000F5D903205AE1604B5B6813F4800FC6D111
:102900005D4B1B6813F0020F03D0E368012B40F00E
:102910004A81594A136823F0F803216943EAC10345
:102920001360236813F0080F42D063696BB3534BF5
:102930000122C3F8802EFEF7DBFF05464E4B5B6F8E
:1029400013F0020F34D1FEF7D3FF401B0228F5D954
:1029500003202BE1484A136823F0F803216943EA76
:10296000C1031360DDE7454B00221A60FEF7C0FF8C
:102970000546414B1B6813F0020FD2D0FEF7B8FF9B
:10298000401B0228F5D9032010E13C4B0022C3F87C
:10299000802EFEF7ADFF0546374B5B6F13F0020F3D
:1029A00006D0FEF7A5FF401B0228F5D90320FDE065
:1029B000236813F0040F77D02F4B1B6C13F0805F4C
:1029C00033D1002301932C4B1A6C42F080521A64CD
:1029D0001B6C03F080530193019B0125284B1B685E
:1029E00013F4807F23D0A368012B34D0052B38D07B
:1029F000214B1A6F22F001021A671A6F22F00402AB
:102A00001A67A368002B3DD0FEF772FF06461A4BEB
:102A10001B6F13F0020F46D1FEF76AFF801B41F2D5
:102A200088339842F3D90320C0E00025D6E7144A42
:102A3000136843F480731360FEF75AFF0646104B89
:102A40001B6813F4807FCED1FEF752FF801B022853
:102A5000F5D90320AAE0084A136F43F00103136776
:102A6000CFE7054B1A6F42F004021A671A6F42F063
:102A700001021A67C5E700BF003802400000474264
:102A800000700040FEF734FF06464F4B1B6F13F0FB
:102A9000020F08D0FEF72CFF801B41F288339842CA
:102AA000F3D9032082E0E5B9A369002B7DD0464A23
:102AB000926802F00C02082A51D0022B17D0434B27
:102AC00000221A66FEF714FF04463F4B1B6813F002
:102AD000007F42D0FEF70CFF001B0228F5D903202F
:102AE00064E0394A136C23F080531364DCE7374BFE
:102AF00000221A66FEF7FCFE0546334B1B6813F0F6
:102B0000007F06D0FEF7F4FE401B0228F5D9032013
:102B10004CE0E369226A1343626A43EA8213A26AC1
:102B20005208013A43EA0243E26A43EA0263264A50
:102B30005360264B01221A66FEF7DAFE0446224B4A
:102B40001B6813F0007F06D1FEF7D2FE001B02289F
:102B5000F5D903202AE0002028E0002026E0012B00
:102B600026D0194B5B6803F48001E269914221D1C0
:102B700003F03F02216A8A421ED1616A47F6C072A1
:102B80001A408A421AD103F44032A16A8A4217D10C
:102B900003F07063E26A934214D1002006E0012042
:102BA0007047012002E0012000E0002002B070BD6B
:102BB0000120FBE70120F9E70120F7E70120F5E715
:102BC0000120F3E70120F1E700380240000047420E
:102BD00008B5314B9B6803F00C03042B57D0082B2E
:102BE00057D12D4B5A6802F03F025B6813F4800FF7
:102BF0002AD0294B5968C1F3881C4FEA4C11B1EB1C
:102C00000C006EEB0E0E4FEA8E1343EA90638101C7
:102C1000091A63EB0E03DB0043EA5173C90011EBA1
:102C20000C0C43F10003590200234FEA4C2041EA07
:102C3000DC51FDF7C5FA184B5B68C3F30143013360
:102C40005B00B0FBF3F025E0134B5968C1F3881C1F
:102C50004FEA4C11B1EB0C006EEB0E0E4FEA8E13E7
:102C600043EA90638101091A63EB0E03DB0043EA38
:102C70005173C90011EB0C0C43F1000399020023BE
:102C80004FEA8C2041EA9C51FDF79AFAD3E70348BA
:102C900000E0034808BD00BF0038024000127A007F
:102CA0000024F400002800F09B8070B50D46044617
:102CB0004F4B1B6803F00F038B4208D2CBB24C4A38
:102CC0001370136803F00F038B4240F08B8023686E
:102CD00013F0020F17D013F0040F04D0454A936885
:102CE00043F4E0539360236813F0080F04D0414A83
:102CF000936843F4604393603E4A936823F0F00383
:102D0000A1680B439360236813F0010F32D063680E
:102D1000012B21D09A1E012A25D9364A126812F0B9
:102D2000020F61D033498A6822F0030213438B609B
:102D3000FEF7DEFD06462F4B9B6803F00C0362682E
:102D4000B3EB820F16D0FEF7D3FD801B41F2883320
:102D50009842F0D9032042E0264A126812F4003F5C
:102D6000E0D101203BE0234A126812F0007FD9D164
:102D7000012034E01E4B1B6803F00F03AB4207D960
:102D8000EAB21B4B1A701B6803F00F03AB422DD144
:102D9000236813F0040F06D0164A936823F4E05317
:102DA000E1680B439360236813F0080F07D0114AC2
:102DB000936823F46043216943EAC1039360FFF7FA
:102DC00007FF0C4B9B68C3F303130B4AD35CD8403B
:102DD0000A4B18600A4B1868FEF73EFD002070BDD4
:102DE000012070470120FAE70120F8E70120F6E70B
:102DF000003C024000380240D096000850000020FD
:102E000058000020014B1868704700BF5000002098
:102E100008B5FFF7F7FF044B9B68C3F38223034A0F
:102E2000D35CD84008BD00BF00380240E0960008DF
:102E300008B5FFF7E7FF044B9B68C3F34233034A2F
:102E4000D35CD84008BD00BF00380240E0960008BF
:102E500030B583B00446036813F0050F06D123682C
:102E600013F0020F2ED1002003B030BD4A4B0022D8
:102E70009A66FEF73DFD0546484B1B6813F0006F50
:102E800006D0FEF735FD431B022BF5D90320EBE7F7
:102E90006268A3681B0743EA8213404AC2F8843081
:102EA0003D4B01229A66FEF723FD05463B4B1B680E
:102EB00013F0006FD3D1FEF71BFD431B022BF5D996
:102EC0000320D1E700230193344B1A6C42F0805267
:102ED0001A641B6C03F080530193019B304A136802
:102EE00043F480731360FEF703FD05462C4B1B680B
:102EF00013F4807F06D1FEF7FBFC431B022BF5D9B0
:102F00000320B1E7254B1B6F13F4407314D0E26824
:102F100002F440729A420FD0204B1A6F22F4407292
:102F20001D490120C1F8400E0020C1F8400E1A676B
:102F30001B6F13F0010F13D1E36803F44072B2F575
:102F4000407F1ED0154A936823F4F8139360134909
:102F50000B6FE268C2F30B0213430B67002083E799
:102F6000FEF7C6FC05460D4B1B6F13F0020FE3D1B5
:102F7000FEF7BEFC401B41F288339842F3D9032090
:102F800072E706498A6822F4F81223F0704323F4AA
:102F9000407313438B60DAE7000047420038024079
:102FA0000070004038B504460268D36823F0A003DF
:102FB000D360FEF79DFC05462368DB6813F0200F05
:102FC00007D1FEF795FC401BB0F57A7FF4D90320BA
:102FD00000E0002038BD38B50368DA6812F0400F11
:102FE00001D0002038BD04464FF0FF32DA60FEF712
:102FF0007FFC05462368DB6813F0400F07D1FEF71E
:1030000077FC431BB3F57A7FF4D90320EAE700206D
:10301000E8E738B500285CD00446437F002B41D058
:10302000022363772368CA225A62236853225A62B2
:103030002046FFF7D0FF0546002837D12268936865
:1030400023F4E00323F04003936021688A686368F7
:10305000206903436069034313438B602368E2687C
:103060001A6122681369A16843EA01431361226867
:10307000D36823F08003D36023689B6813F0200F8C
:103080001BD02268136C23F4802313642268136C12
:10309000A1690B4313642368FF225A6201236377FB
:1030A000284638BD0377FEF79DFAB9E72368FF226B
:1030B0005A62042363770125F2E72046FFF772FF87
:1030C0000028DED02368FF225A620423637701259B
:1030D000E6E70125E4E7030903EB830300F00F00B3
:1030E00000EB4300C0B2704770B50C4603689B6AA2
:1030F0004B6003681B69C3F30E038B6003681D6894
:10310000C5F30641C5F305402070C5F30626667079
:1031100005F07F05A57001F04003E37052B9FFF799
:10312000DAFF20703046FFF7D6FF60702846FFF7C1
:10313000D2FFA070002070BD70B503685B68C3F358
:103140000740C870C3F304264E7003F03F058D702E
:10315000C3F342330B705AB90C46FFF7BCFFE07063
:103160003046FFF7B8FF60702846FFF7B4FFA07045
:10317000002070BD00283BD010B5044600238362B8
:1031800090F85130002B2ED0022384F85130226861
:10319000136823F0400313606368A2681343E26876
:1031A00013432269134362691343A26902F4007254
:1031B0001343E2691343226A1343A16A22680B4353
:1031C0001360638B03F00403616A22680B4353604E
:1031D0002268D36923F40063D36100206065012372
:1031E00084F8513010BD80F85030FEF709FACBE773
:1031F0000120704770470268D36843F00103D36031
:103200000268936803F00703062B03D0136843F0AA
:1032100001031360002070470368304A904212D0C7
:10322000B0F1804F0FD0A2F57C4290420BD002F556
:103230008062904207D002F58062904203D002F58E
:103240007842904203D123F070034A681343234A23
:1032500090422AD0B0F1804F27D0A2F57C42904214
:1032600023D002F5806290421FD002F58062904226
:103270001BD002F57842904217D002F5705290426E
:1032800013D002F5806290420FD002F58062904226
:103290000BD0A2F59832904207D002F5806290429E
:1032A00003D002F58062904203D123F44073CA68D0
:1032B000134323F080034A69134303608B68C3629E
:1032C0000B688362054B984203D003F580639842F4
:1032D00001D10B6903630123436170470000014082
:1032E000B0B110B5044690F83D3063B1022384F8C4
:1032F0003D30214651F8040BFFF78EFF012384F87F
:103300003D30002010BD80F83C30FFF773FFEDE743
:103310000120704738B504460268136923F440530E
:10332000C1680B4313618368026913434269134305
:10333000C2691A430168CB6823F4164323F00C03D7
:103340001343CB600268536923F4407381690B43D4
:103350005361C369B3F5004F35D00368604A9342A7
:1033600000F0918002F58062934200F08C80FFF7BC
:103370004FFD0021031849411B1841F10001C9000C
:1033800041EA5371DB00181863684FEA83024FEA81
:10339000937341F10001FCF713FF524DA5FB00327E
:1033A0005109642303FB11031B013233A5FB0323E3
:1033B0005B0903F0F00202EB011203F00F03216836
:1033C00013448B608AE00368454A93422FD002F58C
:1033D000806293422BD0FFF71BFD0023021843EBC2
:1033E0000301121841F10001C90041EA5271D200F3
:1033F000101841F10001626892185B41FCF7E0FE91
:10340000384DA5FB00325109642303FB1103DB0097
:103410003233A5FB03235B095A0002F4F87202EB76
:10342000011203F00703216813448B6056E0FFF795
:10343000FFFC0023021843EB0301121841F10001C5
:10344000C90041EA5271D200101841F100016268CE
:1034500092185B41FCF7B4FE224DA5FB00325109E6
:10346000642303FB1103DB003233A5FB03235B0959
:103470005A0002F4F87202EB011203F0070321680C
:1034800013448B602AE0FFF7D3FC00210318494165
:103490001B1841F10001C90041EA5371DB00181803
:1034A00063684FEA83024FEA937341F10001FCF72E
:1034B00087FE0C4DA5FB00325109642303FB110369
:1034C0001B013233A5FB03235B0903F0F00202EB7F
:1034D000011203F00F03216813448B6038BD00BF55
:1034E000001001401F85EB5158B310B5044690F809
:1034F00039300BB3242384F839302268D36823F49D
:103500000053D3602046FFF705FF2268136923F4B8
:10351000904313612268536923F02A0353612268A0
:10352000D36843F40053D3600020E063202384F881
:10353000393084F83A3010BD80F83830FEF796F80C
:10354000D8E7012070472DE9F04F07468C46084622
:10355000099E15463C461946002B40F0C680824223
:10356000B2FA82F746D94FB1C7F1200E24FA0EFE07
:1035700000FA07F3BD404EEA030CBC404FEA154881
:103580001FFA85FEBCFBF8F9220C08FB19C309FBE6
:103590000EFA42EA03439A4528D9EB1809F1FF30A5
:1035A00004D29A4502D9A9F102002B44A3EB0A03E5
:1035B000A4B2B3FBF8F208FB123302FB0EFE44EA9E
:1035C0000344A64514D92C1902F1FF3303D2A645B2
:1035D00001D9931E2C44A4EB0E0443EA00401EB113
:1035E000FC40002334607360BDE8F08F4846DDE79F
:1035F0001346F0E702B9FFDE87BB831A01214FEAC9
:10360000154EAAB2B3FBFEFC200C0EFB1C330CFBC8
:1036100002F840EA0343984563D9EB180CF1FF30F8
:1036200004D2984502D9ACF102002B44A3EB080365
:10363000A4B2B3FBFEFC0EFB1C330CFB02F244EA0B
:103640000344A2424FD92C190CF1FF3304D2A242F9
:1036500002D9ACF102032C44A41ABEE7C7F1200C36
:1036600020FA0CF800FA07F324FA0CFCBD404CEAEF
:1036700003024FEA154EABB2B8FBFEFC110C0EFB79
:103680001C800CFB03F941EA0040814504FA07F471
:1036900023D928180CF1FF3104D2814502D9ACF1AD
:1036A00002012844A0EB090092B2B0FBFEFC0EFB25
:1036B0001C000CFB03F842EA004398450FD9EB18B5
:1036C0000CF1FF3204D2984502D9ACF102022B442E
:1036D000A3EB080342EA014191E76146E2E7624653
:1036E000F6E76046A2E76346B6E7834205D90EB126
:1036F000C6E900700021084676E7B3FA83F181B984
:10370000834201D3BA420AD8BC1A60EB03030120FA
:103710009C46002E68D0C6E9004C002164E70846AC
:10372000F7E7C1F1200C8B4022FA0CF41C4302FA9B
:1037300001F500FA01F327FA0CF220FA0CFB4FEA2C
:1037400014491343BBFBF9F81FFA84FE09FB18BBAD
:103750001A0C08FB0EFA42EA0B42924507FA01F7EF
:103760003ED9A21808F1FF3004D2924502D9A8F13F
:1037700002002244A2EB0A029BB2B2FBF9F809FB59
:10378000182208FB0EFE43EA024296452AD9A218E7
:1037900008F1FF3304D2964502D9A8F1020322446E
:1037A00043EA0040A0FB0593A2EB0E029A42CE46EC
:1037B000984602D306D14F4504D2B9EB050E63EB10
:1037C0000408013886B1B7EB0E0362EB080707FA6D
:1037D0000CFCCB404CEA0303CF40C6E900379CE722
:1037E0004046C7E74346DBE73146FDE60023014696
:1037F0001A46184601F0FCBD014B1868704700BF1F
:103800005C00002038B5084B084D5B1B9C1007D0AE
:10381000043B1D44013C55F804399847002CF9D16C
:10382000BDE8384005F0EABE7C9A0008789A0008A6
:1038300070B50D4E0D4D761BB61006D0002455F810
:10384000043B01349847A642F9D1094E094D761B35
:1038500005F0CEFEB61006D0002455F8043B013426
:103860009847A642F9D170BD709A0008709A000876
:10387000789A0008709A0008F0B4860746D0541E63
:10388000002A3CD0CAB2034601E0013C37D303F81A
:10389000012B9D07F9D1032C2AD9CDB245EA052584
:1038A0000F2C45EA054534D9A4F1100222F00F0C83
:1038B00003F120071609674403F1100242E9045599
:1038C00042E902551032BA42F8D1721C14F00C0FC2
:1038D00003EB021204F00F0613D0331F23F003038F
:1038E0000433134442F8045B9342FBD106F0030413
:1038F0002CB1CAB21C4403F8012B9C42FBD1F0BC92
:10390000704734461346002CF3D1F8E714460346BB
:10391000C1E71A462646E0E70EB430B59CB01FABAF
:103920000C4C0D4D53F8042B019301460291069166
:10393000206802A96FF00044CDE90445079400F027
:103940000DF8029B00221A701CB0BDE8304003B095
:10395000704700BF5C0000200802FFFF2DE9F04F18
:10396000D5B08B4617460E93814602F0EFFE0368F2
:1039700017931846FCF744FCBBF80C3016901E0653
:1039800004D5DBF81030002B00F0A7870023CDE929
:103990002933CDE91833CDE91B3313931A930993D7
:1039A0002BAB289398463B78CDF830B0002100220D
:1039B000CDE91412002B00F039813C4604E014F8E4
:1039C000013F002B00F08E80252BF8D1E51B40F045
:1039D0008C802378002B00F0298100230A938DF836
:1039E00083300693661C4FF0FF33647808932B25D1
:1039F0004FF0200A0136A4F120035A2B00F29380E5
:103A0000DFE813F0F50291009100EF0291009100C0
:103A10009100FE0291009100C5021B0291000C0270
:103A2000D5029100CF025B005B005B005B005B0096
:103A30005B005B005B005B009100910091009100D6
:103A400091009100910027019100A7012502270113
:103A50002701270191009100910091001F02910020
:103A60009100A002910091009100BC019100B5026B
:103A70009100910048079100910091009100910000
:103A800091009100910027019100A701E301270116
:103A9000270127011202E3016A0091005A029100F6
:103AA00042021F0763026A009100BC016E002207F8
:103AB00091009100260791006E00A4F130030022CE
:103AC00016F8014B02EB820203EB4202A4F1300331
:103AD000092BF5D90A928EE7069B43F02003069343
:103AE000347887E7E51B00F0A180DDE92932013356
:103AF0002A44072BCDE92932C8F80070C8F80450D1
:103B000006DC08F10808099A23782A44099261E73B
:103B10000C9928AA484603F001FD002841F099833A
:103B20000DF1AC08EFE70F96002C7FD00023CDE914
:103B3000113301211A4607918DF8EC408DF883303E
:103B40000D93089310930B913BAF069B13F0020368
:103B500002D007990231079106992A9D11F0840B32
:103B600005D10A9907980E1A002E00F3B68072B19B
:103B7000299A013201350DF183000121072ACDE98F
:103B80002925C8E9000100F3EE8308F108086BB1AC
:103B9000299B0133023521A90222072BCDE92935C2
:103BA000C8E9001200F3EC8308F10808BBF1800FAC
:103BB00000F0EC82089B0B9A9E1A002E00F32983DA
:103BC000069BDB0500F18682299B0B9AC8F80070E2
:103BD00001331544072B2A95C8F80420299300F3D4
:103BE000A58308F10808069B590705D50A9B079A83
:103BF0009C1A002C00F3CF83DDE9093207998A4231
:103C0000ACBF9B185B180993002D40F03A8300234A
:103C100029930D9B1BB10D99484602F08DFC0DF1C7
:103C2000AC080F9F3B78002B7FF4C7AE2A9BDDF8D2
:103C300030B0002B41F06F82BBF80C3013F0400F16
:103C4000099B18BF4FF0FF330993099855B0BDE8A1
:103C5000F08F0E9B0F96073323F00703F3E802ABB8
:103C60002BF000450E935046B14B29464FF0FF32E2
:103C7000CDE914ABFDF774F8002840F01785AC4B84
:103C8000504629464FF0FF32FDF74CF8002840F02F
:103C90000D850022002350465946FDF739F80028CB
:103CA00041F052809DF88320A24FA34B069D002136
:103CB000CDE91111032025F0800507900D9106959F
:103CC000472CC8BF1F460B9008911091002A3FF463
:103CD0003CAF079B0133079337E7102E299A29DD64
:103CE00029464FF0100A1D464346B84627460C9C0D
:103CF00004E0103E102E03F1080316DD01328F4858
:103D00001031072ACDE92921C3E9000AF1DD28AAEB
:103D10002146484603F002FC002840F06087103E30
:103D2000102EDDE929212BABE8DC3C4647469846BE
:103D30002B460D46013281493544072ACDE9292514
:103D4000C8E9001600F33A879DF8832008F10808B7
:103D50000DE70E9B0F96002153F8042B8DF8EC20F5
:103D60000120CDE911110A4607900E938DF88310BA
:103D70000D91089110910B903BAFE6E60E9D0F96CA
:103D800055F8047B00268DF88360002F00F0B58580
:103D9000089A1346013300F09A8731463846FCF7FB
:103DA0009FFA0D90002801F0D4800D9B0896DA1B35
:103DB0000B92334622EAE2720792CDE911339DF865
:103DC00083200E950D93109380E7069B0F9613F0BA
:103DD000200F0E9B45D0073323F007031946F1E867
:103DE00002230E9192469B46002A73F10003C0F213
:103DF0000884089B013300F0A482069B23F0800511
:103E00005AEA0B0340F09E82089B002B40F0A182EF
:103E10000695002308930B9354AF2EE13478069B4C
:103E200043F004030693E5E53478069B682C00F024
:103E30004D8543F040030693DCE534788DF88350DC
:103E4000D8E5069B347843F008030693D2E5069B39
:103E50000F9643F010030693069B13F0200F0E9B62
:103E6000B9D1069AD50603F1040100F10384069B3B
:103E7000580640F1F9830E9B0E91B3F900A04FEA6A
:103E8000EA7B52465B46AFE70E9A0F9652F8043B28
:103E90000E92069A970600F10284069AD60600F161
:103EA000D986069A550600F18987069A940540F14D
:103EB000D186099A1A70B4E63478069B6C2C00F00F
:103EC000FE8443F01003069394E50E9B0F9647F68D
:103ED000300153F8042BADF8841006990E93184B5B
:103EE000189341F0020592464FF0000B022378240C
:103EF00000228DF88320089A1146013100F0A2803B
:103F000025F0800106915AEA0B0140F09A80002AC0
:103F100040F09A86002B7FF47CAF15F001030B93E1
:103F200000F0968330238DF84F310DF24F17A4E047
:103F3000FFFFEF7FEC960008F0960008309700082E
:103F4000FC960008069B0F9643F010030693069B11
:103F5000980640F146830E9B073323F00703F3E8EE
:103F600002AB0E93069B23F480650023C0E7069BFB
:103F70000F9643F01005AF060E9B40F124830733E4
:103F800023F00703F3E802AB0E930123B0E70E9B87
:103F9000347853F8042B0A92002AC0F27F840E93DF
:103FA00028E5069B347843F08003069322E53246E9
:103FB00012F8014B2A2C01F0D681A4F13003092B11
:103FC000164698BF002200F2E98716F8014B02EB73
:103FD000820203EB4202A4F13003092BF5D90892C7
:103FE00009E5069B347843F00103069302E59DF84A
:103FF00083303478002B7FF4FDAC8DF883A0F9E496
:10400000484602F0A3FB43681B931846FCF7F8F8F8
:10401000034648461C461C9302F098FB82681A929D
:10402000002C3FF45DAD1A9B3478002B3FF4E2ACDA
:104030001B78002B3FF4DEAC069B43F480630693B1
:10404000D8E4069D012B00F07D81022B54AF22D1D4
:1040500018984FEA1A130AF00F0143EA0B734FEA5C
:104060001B129A469346435C07F8013D5AEA0B033C
:10407000EFD154ABDB1B06950B93002308990D93EE
:10408000CDE9113310930B9B9DF883208B42B8BF71
:104090000B4607931AE64FEADA0242EA4B724FEAFE
:1040A000DB010AF007038B46924630335AEA0B01D4
:1040B0003A4607F8013DEED1E907DAD5302BD8D0E2
:1040C0003023023A07F8013C54AB9B1A06950B9338
:1040D0001746D2E7652C40F3DF80DDE914010022AA
:1040E0000023FCF70BFE002800F09E81299BCB4AA1
:1040F000C8F80020013301350122072BCDE929350D
:10410000C8F8042000F36D8508F10808229B139A73
:10411000934280F29882299B179AC8F80020169A39
:10412000C8F8042001331544072B2A95299300F37E
:10413000BA8308F10808139B5C1E002C7FF753AD6F
:10414000102C299BDFF8DCA240F35B855746102634
:10415000DDF830A005E008F10808103C102C40F311
:104160004F8501331035072BCDE92935C8E9007695
:10417000F1DD28AA5146484603F0D0F9002840F066
:104180004281DDE929350DF1AC08E6E70A9B079A83
:104190009E1A002E7FF70EAD102E299BDFF884A209
:1041A00026DD2A464FF0100B25465446DDF830A098
:1041B00004E0103E102E08F1080816DD013310321D
:1041C000072BCDE92932C8E9004BF2DD28AA514678
:1041D000484603F0A3F9002840F01581103E102E48
:1041E000DDE929320DF1AC08E8DCA2462C46154683
:1041F00001333544072BCDE92935C8E900A600F382
:104200001685089B0B9A9E1A002E08F108087FF766
:10421000D7AC102E299BDFF80CA226DD2A464FF0E2
:10422000100B25465446DDF830A004E0103E102E59
:1042300008F1080816DD01331032072BCDE92932C9
:10424000C8E9004BF2DD28AA5146484603F066F95A
:10425000002840F0D880103E102EDDE929320DF103
:10426000AC08E8DCA2462C46154601333544072B42
:10427000CDE92935C8E900A600F3988108F10808BE
:104280009EE40C9928AA484603F048F900283FF418
:10429000BEACDDF830B0B7E0139A299B012A05F1D6
:1042A000010503F1010408F1080640F343810123ED
:1042B000072CCDE92945C8F80070C8F8043000F390
:1042C000AA81169B179A01341D44072CCDE9294574
:1042D000C6E9002300F3AB810836DDE914010022B2
:1042E0000023FCF70BFD1399621C134601F1FF3B01
:1042F00006F10808002840F02F8101375D44072AA5
:1043000037602A95C6F804B0299200F3BF8306F1FE
:104310001002A31C46469046199971600D4424AAC8
:10432000072B2A95299332607FF75DAC0C9928AA58
:10433000484603F0F3F80028ABD12A9D0DF1AC08F4
:1043400051E4069DBBF1000F08BFBAF10A0F80F0DF
:10435000C3830AF1300A01238DF84FA106950B9310
:104360000DF24F1789E60C991D9328AA484603F0D1
:10437000D5F800288DD12A9D1D9B0DF1AC0806E4CF
:104380000C9928AA484603F0C9F8002881D12A9D33
:104390000DF1AC080AE4102C299B1FDD0C9F1026A0
:1043A00004E0103C102C08F1080817DD01331C4A0A
:1043B0001035072BCDE92935C8E90026F1DD28AAFB
:1043C0003946484603F0AAF8002840F01784103C0C
:1043D000102CDDE929350DF1AC08E7DC0133104A7A
:1043E0002544072BCDE92935C8E900247FF704AC23
:1043F0000C9928AA484603F091F800287FF449AFA9
:104400002A9DFFF7F9BBD3460D9B002B3FF414AC5C
:104410000D99484602F090F80EE400BF2C97000872
:104420003097000840970008229A002A40F39183B1
:10443000119B139A9342A8BF1346002B1C460DDD17
:10444000299BC8F8007001332544072B2A95C8F82A
:104450000440299300F32C8508F10808119B002CD7
:10446000A8BF1B1B002B1C4600F35782119B3B442B
:104470009A46069B5E0500F17782229B139A93422F
:1044800003DB069AD40740F17184299A1799C8F87A
:1044900000101699C8F8041001320D44072A2A9515
:1044A000299200F3488508F10808139ABC18A4EB78
:1044B0000A04D31A9C42A8BF1C46002C0DDD299A81
:1044C000C8F800A001322544072A2A95C8F80440FC
:1044D000299200F3678508F10808002CACBF1C1B6B
:1044E0001C46002C7FF77FAB102C299BDFF898A58A
:1044F00040F3878357461026DDF830A005E008F129
:104500000808103C102C40F37B8301331035072B37
:10451000CDE92935C8E90076F1DD28AA514648469B
:1045200002F0FCFF00287FF46EAFDDE929350DF1C4
:10453000AC08E6E7069AD0073FF5B9AE0122072C92
:10454000CDE92945C8F80070C8F8042000F39E8220
:10455000023308F11008DFE6BBF1000F7FF7DCAE95
:10456000BBF1100FDFF820A540F3FB86DDF83080AB
:104570001027144607E00836ABF1100BBBF1100F03
:1045800040F3B18301341035072CCDE92945C6E944
:1045900000A7F0DD28AA4146484602F0BFFF0028E8
:1045A00040F09E83DDE929452BAEE5E70C9928AA6A
:1045B000484602F0B3FF00287FF46BAE2A9D0DF150
:1045C000AC08FFF7FDBAEE0603F1040245D4680615
:1045D0000E9B3FD5B3F800A00E924FF0000B0123C5
:1045E00086E406990E9AC90602F1040351D4069A8C
:1045F000520648D50E9A0E93B2F800A04FF0000B69
:10460000B0E42D23DAF1000A8DF88330069D6BEBC0
:104610004B0B01236FE40C9928AA484602F07EFF59
:1046200000287FF436AEDDE929452BAE49E60C992A
:1046300028AA484602F072FF00287FF42AAEDDE97E
:1046400029452BAE49E6069BDF077FF5CCAA62E53C
:1046500054AF12E5A90500F1A28319680E92012357
:104660008A464FF0000B43E4069B13F4007F0E9B39
:1046700040F086831B680E914FEAE37B9A461A4608
:104680005B46FFF7B1BB069A12F4007F0E9A40F02A
:104690008E8312680E9392464FF0000B62E4099AE3
:1046A0001046D117C3E90001FFF7BBBADDE91401D9
:1046B0000B460246FCF754FB0146002840F0A68555
:1046C000612C00F05D85412C00F07C84089B24F077
:1046D000200A5A1CCDF82CA000F08F83BAF1470FA6
:1046E00000F06B85DDE914BC069ABCF1000642F4CB
:1046F0008073C0F29885CDE9063200211D910D919D
:10470000BAF1460F5A46334600F0F883BAF1450F26
:1047100040F0DB83089926A84D1C23A9049003913F
:1047200022A80221019502900091484600F03CFF2A
:10473000074605445846314600220023FCF7DEFABE
:10474000002800F09C832B46DB1B1393229B1193C4
:104750000B9B472B00F060830B9B462B00F00584DE
:104760000B99119BE2B2412908BF0F3203F1FF33CD
:1047700006BFD2B201210021002B2293B8BF119BAA
:104780008DF89020BABFC3F101032D222B22092BF3
:104790008DF8912040F34D850DF19F0CB64E654686
:1047A00086FB0321DA17C2EBA10202EB8201A3EB25
:1047B00041019E463031BEF1630F284605F8011CC9
:1047C000134605F1FF35EBDC3033821EDBB2944536
:1047D000294605F8013C40F2DF850DF1920201E027
:1047E00011F8013B02F8013B8C45F9D10DF1A10311
:1047F0000DF192021B1A134424AA9B1A1993139BBE
:10480000199A012B1A440B9240F392850B9B169A2E
:1048100013440B93079B23F4806343F480730022BB
:1048200006930B9B1092CDE9112223EAE3730793C1
:104830001D9B002B40F01C839DF883200893FFF7FD
:1048400045BA0F96FFF783BB069D0F96FFF793BB04
:104850008A4B0F961893069B9F0640F1FC800E9B97
:10486000073323F00703F3E802AB0E93069AD00751
:104870000AD55AEA0B0307D0302342F002028DF822
:10488000854006928DF88430069B23F480650223D0
:10489000FFF72EBB7A4B0F961893DCE752420A9231
:1048A0000E93FFF7BCBA0C9928AA484602F036FED0
:1048B00000287FF4EEAC2A9D0DF1AC083BE443F0F8
:1048C0002003747806930136FFF794B843F400731D
:1048D000747806930136FFF78DB84021484601F001
:1048E00047FFCBF80000CBF81000002800F05885F7
:1048F0004023CBF81430FFF749B8089B1097062BDC
:1049000028BF0623CDE911773A4608970D970793FC
:104910005C4F0E950B93FFF7D9B9102C299BDFF84C
:1049200068A140F3F381BB4610265746DDF830A05E
:1049300005E008F10808103C102C40F3E581013334
:104940001035072BCDE92935C8E90076F1DD28AA15
:104950005146484602F0E2FD00287FF454ADDDE9FF
:1049600029350DF1AC08E6E7139B0B97FB1808936C
:10497000129BDFF814B11A9F56464246DDF870A02C
:10498000DDF830802946002B30D0109B002B31D130
:10499000129B013B013F1293299B1B98106001332E
:1049A0005144072B2A91C2F804A029937DDC0832D8
:1049B00008983B78841B9C42A8BF1C46002C0BDD4A
:1049C000299B166001332144072B2A9154602993B7
:1049D00000F322813B780832002CACBF1C1B1C4624
:1049E000002C0BDC1E44129B002BCED1109B002B05
:1049F00000F00682109B013B1093CDE7102C299804
:104A00001CDD102504E0103C102C02F1080215DD1D
:104A1000013010310728CDE92901C2E900B5F2DDE6
:104A200028AA4146484602F079FD002840F0588106
:104A3000103C102CDDE929012BAAE9DC01302144CE
:104A40000728CDE92901C2E900B400F324823B78AC
:104A500008321E44C7E706990E9ACE0602F10403F7
:104A600034D4069A55062BD50E9A0E93B2F800A0B0
:104A70004FF0000BFAE600BF67666666FC9600081A
:104A80001097000824970008409700080C9928AA5E
:104A9000484602F043FD00287FF4FBABDDE92935F1
:104AA0000DF1B40801332BAE36E428AA414648463E
:104AB00002F034FD002840F013812A992BAA77E7F1
:104AC000069A12F4007F0E9A40F0638112680E93EA
:104AD00092464FF0000BC9E605F480630694CDF8CA
:104AE0001C900026C14654AFA8461C461A9D09E0FA
:104AF000FBF766FBBBF1000F08BFBAF10A0F1FD32B
:104B000082468B460A22002350465946FBF758FB43
:104B100094460CF1300C07F801CC504659460A2255
:104B200000230136013F002CE2D095F800C0664515
:104B3000DED1FF2EDCD09B4508BF924580F0F2808D
:104B40001A95069C13964546C846DDF81C90FFF75B
:104B500090BA299BC449C8F80010013301350121DE
:104B6000072BCDE92935C8F8041000F3F28008F1CD
:104B70000808002A72D1069B139A03F0010313431D
:104B80003FF431A8299B179AC8F80020169AC8F854
:104B9000042001331544072B2A95299300F3128131
:104BA00008F10808139A01331544072BCDE929357C
:104BB000C8E900727FF715A8FFF7B8BB0C991D93E1
:104BC00028AA484602F0AAFC00287FF462AB9DF8B0
:104BD00083202A9D1D9B0DF1AC08FEF7C8BFA3469C
:104BE00012E40C9928AA484602F098FC00287FF4A9
:104BF00050AB2A9D0DF1AC08FFF788BABB4603E421
:104C0000BA4601332544072BCDE92935C8E900A46C
:104C10007EF7E7AFFFF78ABB28AA4146484602F075
:104C20007DFC00285CD13B782A992BAAD4E60C990C
:104C300028AA484602F072FC00287FF42AAB2A9D7D
:104C40000DF1AC08FEF7B6BF012B069D7FF4FDA960
:104C5000FFF77FBB099A1A60FEF7E3BF299B1799FC
:104C6000C8F800101699C8F8041001330D44072B3A
:104C70002A95299300F3A68008F10808002A91DA02
:104C800054421032DFF8E4A180F28182BB46102644
:104C90005746DDF830A005E008F10808103C102C5C
:104CA00040F3738201331035072BCDE92935C8E96C
:104CB0000076F1DD28AA5146484602F02FFC002874
:104CC0007FF4A1ABDDE929350DF1AC08E6E7384604
:104CD000FBF796FA3346089602460B90FFF76AB840
:104CE000C346FFF791BB631C06F108025D44072B26
:104CF000C6E900AB2A9529933FF7C8AE013302F10C
:104D000008081646FFF708BBBA465F46013325443C
:104D1000072BCDE92935C8E900A461DC08F10808B2
:104D2000FFF7A4BB1C9B1B99FF1A1A46384602F0DA
:104D3000C1FB6B7803B101350A2200235046594666
:104D40000026FBF73DFADBE62D228DF88320FEF7E7
:104D5000ABBF0C9928AA484602F0E0FB00287FF47C
:104D600098AA229A2A9D0DF1AC0802E7139ABC1862
:104D7000A4EB0A04D31A9C42A8BF1C46FFF7ADBBA4
:104D800093F900A00E914FEAEA7B52465B46FFF78B
:104D90002BB892F800A00E934FF0000B66E593F845
:104DA00000A00E924FF0000B0123FFF7A1B892F87C
:104DB00000A00E934FF0000BFFF7D4B8099A1A80A9
:104DC000FEF72FBF0C9928AA484602F0A7FB00283F
:104DD0007FF45FAADDE92935229A0DF1AC084DE791
:104DE0000C9928AA484602F099FB00287FF451AAA2
:104DF0002A9D0DF1AC08FFF739BB0623089371E437
:104E0000139B1A970B9FFB189E42B24690460D4685
:104E100028BF9A46FFF731BB119BD81C02DB089ACA
:104E2000934204DD023C24F020030B9398E4119B91
:104E300013998B42C0F26581079AD20740F1E38152
:104E4000169A13440B93079B5B0503D5119B002B0C
:104E500000F321820B9B23EAE3730793672400236B
:104E600010931293E4E400BF2C97000840970008C9
:104E70002D2200238DF883200893FEF72ABF269B5E
:104E8000AB42BFF461AC30215A1C26921970269BAC
:104E90009D42F9D858E428AA4146484602F03EFB14
:104EA00000287FF41DAF3B782A992BAA1E449AE56F
:104EB0000C9928AA484602F031FB00287FF4E9A9A2
:104EC0002A9D0DF1AC08FFF7C9BA26A823A9089DB1
:104ED0000490039122A80221029001950091484676
:104EE00000F062FBBAF1470F074615D1079BDB07BD
:104EF00000F11A814722269B0B9225E426A823A9BC
:104F0000089D0490039122A803210290019500912D
:104F1000484600F049FB0746089BBAF1460F07EBED
:104F200003057FF407AC3B78302B00F0DB81229B3C
:104F30001D44FFF7FFBB0C9928AA484602F0EEFA81
:104F400000287FF4A6A9229B2A9D0DF1AC08FFF74B
:104F5000ACBA089B9DF883200793CDE911000B9311
:104F600008900E951090FEF7B1BE079B1199089A14
:104F700003F00103002943EA020340F3DF81002B21
:104F800040F08381119B0B936624079B5A0500F127
:104F900083810B9B23EAE373079360E70023089365
:104FA000FEF729BD0C9928AA484602F0B7FA002856
:104FB0007FF46FA9229B139A2A9DD31A0DF1AC0896
:104FC000FFF78BBA30238DF8843058238DF8853065
:104FD000069B43F002030793089B632B00F3AA8010
:104FE00000230D933BAF069B43F481730693159BFF
:104FF00024F0200A1E1ECDF82CA07ADB0023DDF859
:1050000050B01D93612C00F02A81412C7FF478ABC5
:10501000584622AA314602F015FA00224FF07F537B
:10502000FBF704FC0022002382468B46FBF766FE5A
:1050300008B101232293B84B1093089B1394CDE938
:105040001E973E465D1E109FCDF8448003E0FBF79F
:1050500055FE013D08BBB14B002250465946FBF7B7
:10506000E5FB89468046FBF791FE0446FBF774FB9F
:1050700002460B4640464946FBF720FA17F804C0A3
:10508000B5F1FF3FB146824606F801CB8B464FF0A3
:1050900000024FF00003A846D9D1A14B0022504690
:1050A00059464546DDF84480CDE91194DDE91E9767
:1050B000139CFBF74BFE002846D1994B50465946AE
:1050C0000022FBF71BFE10B1129BDB073CD4002D26
:1050D0002B4606DB01333344302206F8012BB34262
:1050E000FBD1F31B1393FFF731BB069B07930D9086
:1050F0000695DDE9142303F100462D2393461D9305
:1051000080E7139B169A9A18119B0B92002B40F381
:10511000F980672439E7484628AA594602F0FEF983
:10512000BBF80C30FEF78ABD089BFD1847230B9394
:10513000FFF700BB591C484601F01AFB0746002840
:1051400000F01C810D904EE7119B2693109B16F8E2
:10515000012CD97B8A42334609D1302003F8010C57
:10516000269B5A1E269213F8012C9142F6D0392A1A
:105170000BBF109A0132927AD2B203F8012CB0E739
:1051800030238DF88430782320E7BA465F46013318
:105190002544072BCDE92935C8E900A47FF700ADE8
:1051A0000C9928AA484602F0B9F900287FF471A8A2
:1051B000DDE929350DF1AC08F4E4002B08BF01232B
:1051C0000893069B43F48075159BB3F1000B8CDBB1
:1051D000089F019726AE23A822AA0223CDE9030641
:1051E000029200934846DDE914238A461D9100F09F
:1051F000DBF9069B07935E460695DDF850B0CDF8C7
:1052000034A0074672E6119B0B931CE6159B454F95
:10521000002BB4BF2D229DF88320434BB8BF8DF8DF
:105220008320FEF743BD069A079200220D92069353
:105230005FE7002940F0928030228DF892200DF136
:105240009302303302F8013B24ABD31A1993FFF7D2
:10525000D6BADDF830B0BBF80C30FEF7EFBC5846DC
:1052600022AA314602F0EEF800224FF07F53FBF7FE
:10527000DDFA0022002382468B46FBF73FFD08B192
:1052800001232293294B1093D7E6169BCB181A447F
:105290000B92662479E667241A990B78FF2B77D056
:1052A0000025119A284603E001300131FF2B08D078
:1052B000934206DAD21A4B78002BF5D10B780135E0
:1052C000F4E7CDE911201A911095109A129B0B99D1
:1052D00013441C9A02FB03130B9323EAE373079313
:1052E000FFF7A6BA5846314600220023FBF706FD19
:1052F00000287FF41CAE089BC3F1010322931D44D8
:10530000FFF718BAC3F101031A4422EAE2730B92C1
:1053100007936724A3E500BF109700080000304002
:105320000000E03FF4960008F8960008FC9600089C
:10533000079BD9077FF56EAAFFF768BA23B9012347
:1053400007930B9366248AE5169B089A01331A4447
:1053500022EAE2730B920793662480E50DF1920234
:105360006FE74246C2E40E9B747853F8041B0E9319
:10537000164641EAE1720892FEF73CBBDDF830B018
:10538000BBF80C3043F04003ABF80C30FEF756BCD2
:1053900000231093129398E702231993FFF72FBA73
:1053A0000C23C9F800304FF0FF330993FEF74DBCD2
:1053B00030B59BB0074D00916FF0004404916946F1
:1053C000CDE902450594FEF7C9FA009B00221A7048
:1053D0001BB030BD0802FFFF30B4044C0D4613462D
:1053E00001462A46206830BCFFF7E2BF5C0000207F
:1053F0002DE9F047DFF87CA00646DAF80000984671
:105400000F46914601F0B0F9194B1B68D3F848419B
:1054100024B36568DAF800001F2D24DC4EB9AB1CFC
:105420000135656044F8237001F0A0F90020BDE863
:10543000F08704EB85030122C3F88890D4F8881123
:10544000AA401143022EC4F88811C3F80881E6D19E
:10545000D4F88C311A43C4F88C21E0E703F5A67424
:10546000C3F84841D5E701F081F94FF0FF30DEE79E
:10547000E896000888040020024B13B10248FEF7AA
:10548000B5B9704700000000053800082DE9F04F5D
:1054900003690E69B34283B0C0F28280013E01F11C
:1054A000140700F1140A57F826305AF82620013361
:1054B0008346B00000909A420AEB860007EB86090B
:1054C0000190B2FBF3F836D300252A46BC4650467D
:1054D0005CF8044B03681FFA84FE08FB0E554FEA84
:1054E000154E240C08FB04E4ADB2551BA2B2C2EB6E
:1054F000134215FA83F302EB23429BB243EA0243C1
:10550000E14540F8043B4FEA14454FEA2242DFD21E
:10551000009B5AF8033073B9019B043B9A4504D3AE
:1055200007E09A4506F1FF3603D253F80429002A12
:10553000F7D0CBF81060584601F04EFE00282BDB68
:1055400008F101085046002357F8041B04688AB28A
:105550009A1A0B0C12FA84F2C3EB144303EB2243A6
:1055600092B242EA0342B94540F8042B4FEA234382
:10557000EAD25AF826200AEB86036AB9043B9A4518
:1055800004D307E09A4506F1FF3603D253F8042905
:10559000002AF7D0CBF81060404603B0BDE8F08F8A
:1055A000002003B0BDE8F08F2DE9F04F016C9DB0F5
:1055B00016461F46CDE90467299D044641B1426C59
:1055C0004A60012393408B6001F0D6FB00232364E3
:1055D000B7F10009B4BF012300232B60784BBCBF97
:1055E00029F00049CDF8149033EA090300F0AD80AA
:1055F000DDE90423CDE908231046194600220023E3
:10560000FBF77CFB804670B1289A012313602A9B2C
:10561000002B00F0D3826B481860431E039303985D
:105620001DB0BDE8F08F1AAA1BABCDE900322046B1
:10563000DDE9082301F092FE5FEA1955834640F048
:105640009A80DDE91A85454405F23243202B40F368
:10565000A283C3F1400305F2124009FA03F926FAC6
:1056600000F049EA0000FBF767F80123013DA1F1D2
:10567000F8710E93544B0022FAF720FF4AA3D3E9A6
:105680000023FBF7D3F84AA3D3E90023FAF718FF66
:10569000064628460F46FBF75FF847A3D3E90023E9
:1056A000FBF7C4F802460B4630463946FAF708FFC6
:1056B00006460F46FBF76AFB002281460023304670
:1056C0003946FBF725FB002840F06B82A8EB050567
:1056D0006B1EB9F1160F069300F257823B4B03EB9A
:1056E000C903D3E90023DDE90801FBF711FB00281A
:1056F00072D000230D93069B002B09F1FF39C0F2F5
:105700004A8200230A93B9F1000F6BDA0A9BCDF8A5
:105710001C90A3EB09030A93C9F100030C93269B89
:10572000092B4FF0000966D8052B40F33283043B68
:1057300026930025269B023B032B00F27386DFE8AD
:1057400013F0480445043C041F04289A42F20F73E6
:10575000C9F31309136059EA06031CD12A9B002BD5
:1057600000F07E861A4B039308332A9A039813603D
:105770001DB0BDE8F08FDDE90812C2F3130308463F
:1057800043F07F51CDF83880A5F2FF35DDF8688011
:1057900041F440116EE72A9B002B40F0E0830D4B53
:1057A00003933CE7AFF3008061436F63A787D23F69
:1057B000B3C8608B288AC63FFB799F501344D33F00
:1057C0000000F07F2D9700080000F83F3098000897
:1057D0005497000850970008069B002BC0F2B8842D
:1057E0000D900A90069B4B44CDE9063900230C939B
:1057F000269B092B98D90023012526930B952793E7
:105800004FF0FF3A00216164CDF83CA0204601F042
:105810008DFA0390002800F00D86039B2364BAF1F3
:105820000E0F00F2F980002D00F0F6800799002994
:1058300040F35C84BE4B01F00F0203EBC203CA05C8
:10584000D3E900674FEA211540F1F383B94BDDE955
:105850000801D3E90823FBF713F9CDE9120103236B
:1058600005F00F051093A5B11494DFF8C882109CC1
:10587000EB0708D530463946D8E90023FAF7D6FFBA
:10588000013406460F466D1008F10808F0D1109457
:10589000149C3B46DDE912013246FBF7F1F807465E
:1058A00088460D9B43B1A44B002238464146FBF786
:1058B0002FFA002840F042851098FAF74DFF3A463B
:1058C0004346FAF7B3FF9D4B0022FAF7F9FD054670
:1058D000A1F15076BAF1000F00F0EA83079B19930B
:1058E000CDF848A038464146FBF750FA1299904B44
:1058F00003EBC10353E9022300F1300CCDE914237B
:105900005FFA8CF31893FAF727FF02460B463846E6
:105910004146FAF7D3FD039FCDE910010B98CDE97D
:1059200016567D1C002800F0AF84DDE9142384495D
:105930000020FBF7A5F8DDE91623FAF7BFFD189B59
:105940003B70DDE91023CDE91401FBF7FFF90028D6
:1059500040F038850023DDE91067CDF85890CDF888
:1059600040B0DDF84890CDF860A09846DDE914AB72
:1059700012942AE008F10108C84546DA714B5046F6
:1059800059460022FAF752FF6E4B002282468B46A0
:1059900030463946FAF74AFF0F460646FBF7F6F956
:1059A0000446FAF7D9FE02460B4630463946FAF766
:1059B00085FD303405F8014B52465B4606460F46DE
:1059C000FBF7A6F9002840F0FA8432463B465A49D4
:1059D0000020FAF773FD52465B46FBF799F9002861
:1059E000C8D0DDF840B0129C199B039A013307938D
:1059F00002E0AA4200F0CE84A94615F8013D392BF9
:105A0000F7D00133DBB22B70A5E1DDF85890DDF85B
:105A100040B0DDF860A0129C1B9B002BC0F296806A
:105A2000079A0E2A00F39280414B03EBC203D3E99D
:105A30000023CDE90423279B002B1ADABAF1000FCB
:105A400017DC40F0B884404B0022DDE90401FAF78E
:105A5000EDFE02460B46DDE90801FBF763F9574608
:105A60005546002800F0CE82279BDDF80C90DB43E2
:105A7000CFE2DDE90467DDE9080132463B46FAF78B
:105A8000FFFFFBF783F98146FAF766FE32463B4695
:105A9000FAF7CCFE039D0B460246DDE90801FAF752
:105AA0000DFD09F13003BAF1010F05F8013B00F0DB
:105AB0008F83CDF820B0CDF818A0BB46B2464FF08A
:105AC00001082E4627461EE052465B4620462946E0
:105AD000FAF7D6FFFBF75AF98146FAF73DFE524630
:105AE0005B46FAF7A3FE0B46024629462046FAF724
:105AF000E5FC09F1300306F8013B069B08F10108BB
:105B0000434500F061830F4B0022FAF78FFE00221D
